{
  "_format": "hh-sol-artifact-1",
  "contractName": "Iran",
  "sourceName": "contracts/Iran.sol",
  "abi": [
    {
      "inputs": [],
      "stateMutability": "nonpayable",
      "type": "constructor"
    },
    {
      "anonymous": false,
      "inputs": [
        {
          "indexed": true,
          "internalType": "address",
          "name": "owner",
          "type": "address"
        },
        {
          "indexed": true,
          "internalType": "address",
          "name": "approved",
          "type": "address"
        },
        {
          "indexed": true,
          "internalType": "uint256",
          "name": "tokenId",
          "type": "uint256"
        }
      ],
      "name": "Approval",
      "type": "event"
    },
    {
      "anonymous": false,
      "inputs": [
        {
          "indexed": true,
          "internalType": "address",
          "name": "owner",
          "type": "address"
        },
        {
          "indexed": true,
          "internalType": "address",
          "name": "operator",
          "type": "address"
        },
        {
          "indexed": false,
          "internalType": "bool",
          "name": "approved",
          "type": "bool"
        }
      ],
      "name": "ApprovalForAll",
      "type": "event"
    },
    {
      "anonymous": false,
      "inputs": [
        {
          "indexed": true,
          "internalType": "address",
          "name": "previousOwner",
          "type": "address"
        },
        {
          "indexed": true,
          "internalType": "address",
          "name": "newOwner",
          "type": "address"
        }
      ],
      "name": "OwnershipTransferred",
      "type": "event"
    },
    {
      "anonymous": false,
      "inputs": [
        {
          "indexed": false,
          "internalType": "address",
          "name": "account",
          "type": "address"
        }
      ],
      "name": "Paused",
      "type": "event"
    },
    {
      "anonymous": false,
      "inputs": [
        {
          "indexed": true,
          "internalType": "address",
          "name": "from",
          "type": "address"
        },
        {
          "indexed": true,
          "internalType": "address",
          "name": "to",
          "type": "address"
        },
        {
          "indexed": true,
          "internalType": "uint256",
          "name": "tokenId",
          "type": "uint256"
        }
      ],
      "name": "Transfer",
      "type": "event"
    },
    {
      "anonymous": false,
      "inputs": [
        {
          "indexed": false,
          "internalType": "address",
          "name": "account",
          "type": "address"
        }
      ],
      "name": "Unpaused",
      "type": "event"
    },
    {
      "inputs": [
        {
          "internalType": "address",
          "name": "to",
          "type": "address"
        },
        {
          "internalType": "uint256",
          "name": "tokenId",
          "type": "uint256"
        }
      ],
      "name": "approve",
      "outputs": [],
      "stateMutability": "nonpayable",
      "type": "function"
    },
    {
      "inputs": [
        {
          "internalType": "address",
          "name": "owner",
          "type": "address"
        }
      ],
      "name": "balanceOf",
      "outputs": [
        {
          "internalType": "uint256",
          "name": "",
          "type": "uint256"
        }
      ],
      "stateMutability": "view",
      "type": "function"
    },
    {
      "inputs": [
        {
          "internalType": "uint256",
          "name": "count",
          "type": "uint256"
        },
        {
          "internalType": "string[]",
          "name": "jsonUri",
          "type": "string[]"
        }
      ],
      "name": "bulkMint",
      "outputs": [],
      "stateMutability": "payable",
      "type": "function"
    },
    {
      "inputs": [
        {
          "internalType": "uint256",
          "name": "count",
          "type": "uint256"
        },
        {
          "internalType": "address[]",
          "name": "to",
          "type": "address[]"
        },
        {
          "internalType": "uint256[]",
          "name": "tokenIds",
          "type": "uint256[]"
        }
      ],
      "name": "bulkTransfer",
      "outputs": [],
      "stateMutability": "nonpayable",
      "type": "function"
    },
    {
      "inputs": [
        {
          "internalType": "uint256",
          "name": "tokenId",
          "type": "uint256"
        }
      ],
      "name": "burn",
      "outputs": [],
      "stateMutability": "nonpayable",
      "type": "function"
    },
    {
      "inputs": [],
      "name": "fetchAllNFTs",
      "outputs": [
        {
          "components": [
            {
              "internalType": "uint256",
              "name": "tokenId",
              "type": "uint256"
            },
            {
              "internalType": "string",
              "name": "uri",
              "type": "string"
            },
            {
              "internalType": "address payable",
              "name": "owner",
              "type": "address"
            }
          ],
          "internalType": "struct Iran.MarketItem[]",
          "name": "",
          "type": "tuple[]"
        }
      ],
      "stateMutability": "view",
      "type": "function"
    },
    {
      "inputs": [],
      "name": "fetchMyNFTs",
      "outputs": [
        {
          "components": [
            {
              "internalType": "uint256",
              "name": "tokenId",
              "type": "uint256"
            },
            {
              "internalType": "string",
              "name": "uri",
              "type": "string"
            },
            {
              "internalType": "address payable",
              "name": "owner",
              "type": "address"
            }
          ],
          "internalType": "struct Iran.MarketItem[]",
          "name": "",
          "type": "tuple[]"
        }
      ],
      "stateMutability": "view",
      "type": "function"
    },
    {
      "inputs": [
        {
          "internalType": "uint256",
          "name": "from",
          "type": "uint256"
        },
        {
          "internalType": "uint256",
          "name": "to",
          "type": "uint256"
        }
      ],
      "name": "fetchNFTs",
      "outputs": [
        {
          "components": [
            {
              "internalType": "uint256",
              "name": "tokenId",
              "type": "uint256"
            },
            {
              "internalType": "string",
              "name": "uri",
              "type": "string"
            },
            {
              "internalType": "address payable",
              "name": "owner",
              "type": "address"
            }
          ],
          "internalType": "struct Iran.MarketItem[]",
          "name": "",
          "type": "tuple[]"
        }
      ],
      "stateMutability": "view",
      "type": "function"
    },
    {
      "inputs": [
        {
          "internalType": "uint256",
          "name": "tokenId",
          "type": "uint256"
        }
      ],
      "name": "getApproved",
      "outputs": [
        {
          "internalType": "address",
          "name": "",
          "type": "address"
        }
      ],
      "stateMutability": "view",
      "type": "function"
    },
    {
      "inputs": [
        {
          "internalType": "address",
          "name": "_address",
          "type": "address"
        }
      ],
      "name": "grantMintingRole",
      "outputs": [],
      "stateMutability": "nonpayable",
      "type": "function"
    },
    {
      "inputs": [
        {
          "internalType": "address",
          "name": "owner",
          "type": "address"
        },
        {
          "internalType": "address",
          "name": "operator",
          "type": "address"
        }
      ],
      "name": "isApprovedForAll",
      "outputs": [
        {
          "internalType": "bool",
          "name": "",
          "type": "bool"
        }
      ],
      "stateMutability": "view",
      "type": "function"
    },
    {
      "inputs": [
        {
          "internalType": "string",
          "name": "uri",
          "type": "string"
        }
      ],
      "name": "mintHero",
      "outputs": [
        {
          "internalType": "uint256",
          "name": "",
          "type": "uint256"
        }
      ],
      "stateMutability": "payable",
      "type": "function"
    },
    {
      "inputs": [],
      "name": "name",
      "outputs": [
        {
          "internalType": "string",
          "name": "",
          "type": "string"
        }
      ],
      "stateMutability": "view",
      "type": "function"
    },
    {
      "inputs": [],
      "name": "owner",
      "outputs": [
        {
          "internalType": "address",
          "name": "",
          "type": "address"
        }
      ],
      "stateMutability": "view",
      "type": "function"
    },
    {
      "inputs": [
        {
          "internalType": "uint256",
          "name": "tokenId",
          "type": "uint256"
        }
      ],
      "name": "ownerOf",
      "outputs": [
        {
          "internalType": "address",
          "name": "",
          "type": "address"
        }
      ],
      "stateMutability": "view",
      "type": "function"
    },
    {
      "inputs": [],
      "name": "pause",
      "outputs": [],
      "stateMutability": "nonpayable",
      "type": "function"
    },
    {
      "inputs": [],
      "name": "paused",
      "outputs": [
        {
          "internalType": "bool",
          "name": "",
          "type": "bool"
        }
      ],
      "stateMutability": "view",
      "type": "function"
    },
    {
      "inputs": [],
      "name": "renounceOwnership",
      "outputs": [],
      "stateMutability": "nonpayable",
      "type": "function"
    },
    {
      "inputs": [
        {
          "internalType": "address",
          "name": "from",
          "type": "address"
        },
        {
          "internalType": "address",
          "name": "to",
          "type": "address"
        },
        {
          "internalType": "uint256",
          "name": "tokenId",
          "type": "uint256"
        }
      ],
      "name": "safeTransferFrom",
      "outputs": [],
      "stateMutability": "nonpayable",
      "type": "function"
    },
    {
      "inputs": [
        {
          "internalType": "address",
          "name": "from",
          "type": "address"
        },
        {
          "internalType": "address",
          "name": "to",
          "type": "address"
        },
        {
          "internalType": "uint256",
          "name": "tokenId",
          "type": "uint256"
        },
        {
          "internalType": "bytes",
          "name": "data",
          "type": "bytes"
        }
      ],
      "name": "safeTransferFrom",
      "outputs": [],
      "stateMutability": "nonpayable",
      "type": "function"
    },
    {
      "inputs": [
        {
          "internalType": "address",
          "name": "operator",
          "type": "address"
        },
        {
          "internalType": "bool",
          "name": "approved",
          "type": "bool"
        }
      ],
      "name": "setApprovalForAll",
      "outputs": [],
      "stateMutability": "nonpayable",
      "type": "function"
    },
    {
      "inputs": [
        {
          "internalType": "bytes4",
          "name": "interfaceId",
          "type": "bytes4"
        }
      ],
      "name": "supportsInterface",
      "outputs": [
        {
          "internalType": "bool",
          "name": "",
          "type": "bool"
        }
      ],
      "stateMutability": "view",
      "type": "function"
    },
    {
      "inputs": [],
      "name": "symbol",
      "outputs": [
        {
          "internalType": "string",
          "name": "",
          "type": "string"
        }
      ],
      "stateMutability": "view",
      "type": "function"
    },
    {
      "inputs": [
        {
          "internalType": "uint256",
          "name": "tokenId",
          "type": "uint256"
        }
      ],
      "name": "tokenURI",
      "outputs": [
        {
          "internalType": "string",
          "name": "",
          "type": "string"
        }
      ],
      "stateMutability": "view",
      "type": "function"
    },
    {
      "inputs": [
        {
          "internalType": "address",
          "name": "from",
          "type": "address"
        },
        {
          "internalType": "address",
          "name": "to",
          "type": "address"
        },
        {
          "internalType": "uint256",
          "name": "tokenId",
          "type": "uint256"
        }
      ],
      "name": "transferFrom",
      "outputs": [],
      "stateMutability": "nonpayable",
      "type": "function"
    },
    {
      "inputs": [
        {
          "internalType": "address",
          "name": "newOwner",
          "type": "address"
        }
      ],
      "name": "transferOwnership",
      "outputs": [],
      "stateMutability": "nonpayable",
      "type": "function"
    },
    {
      "inputs": [
        {
          "internalType": "address",
          "name": "to",
          "type": "address"
        },
        {
          "internalType": "uint256",
          "name": "tokenId",
          "type": "uint256"
        }
      ],
      "name": "transferTo",
      "outputs": [],
      "stateMutability": "nonpayable",
      "type": "function"
    },
    {
      "inputs": [],
      "name": "unpause",
      "outputs": [],
      "stateMutability": "nonpayable",
      "type": "function"
    }
  ],
  "bytecode": "0x60806040523480156200001157600080fd5b506040518060400160405280600481526020017f4972616e000000000000000000000000000000000000000000000000000000008152506040518060400160405280600481526020017f4952414e00000000000000000000000000000000000000000000000000000000815250816000908051906020019062000096929190620001c1565b508060019080519060200190620000af929190620001c1565b5050506000600760006101000a81548160ff021916908315150217905550620000ed620000e1620000f360201b60201c565b620000fb60201b60201c565b620002d6565b600033905090565b6000600760019054906101000a900473ffffffffffffffffffffffffffffffffffffffff16905081600760016101000a81548173ffffffffffffffffffffffffffffffffffffffff021916908373ffffffffffffffffffffffffffffffffffffffff1602179055508173ffffffffffffffffffffffffffffffffffffffff168173ffffffffffffffffffffffffffffffffffffffff167f8be0079c531659141344cd1fd0a4f28419497f9722a3daafe3b4186f6b6457e060405160405180910390a35050565b828054620001cf90620002a0565b90600052602060002090601f016020900481019282620001f357600085556200023f565b82601f106200020e57805160ff19168380011785556200023f565b828001600101855582156200023f579182015b828111156200023e57825182559160200191906001019062000221565b5b5090506200024e919062000252565b5090565b5b808211156200026d57600081600090555060010162000253565b5090565b7f4e487b7100000000000000000000000000000000000000000000000000000000600052602260045260246000fd5b60006002820490506001821680620002b957607f821691505b60208210811415620002d057620002cf62000271565b5b50919050565b61466680620002e66000396000f3fe6080604052600436106101b75760003560e01c80636352211e116100ec578063a74a00cd1161008a578063db42183911610064578063db421839146105d5578063e985e9c514610605578063f2fde38b14610642578063fe33da561461066b576101b7565b8063a74a00cd14610553578063b88d4fde1461056f578063c87b56dd14610598576101b7565b80638456cb59116100c65780638456cb59146104bd5780638da5cb5b146104d457806395d89b41146104ff578063a22cb4651461052a576101b7565b80636352211e1461042c57806370a0823114610469578063715018a6146104a6576101b7565b80632f966ca8116101595780633f4ba83a116101335780633f4ba83a1461039857806342842e0e146103af57806342966c68146103d85780635c975abb14610401576101b7565b80632f966ca81461030757806330dd8e42146103445780633f0e317b1461036d576101b7565b8063095ea7b311610195578063095ea7b314610261578063202e37401461028a57806323b872dd146102b55780632ccb1b30146102de576101b7565b806301ffc9a7146101bc57806306fdde03146101f9578063081812fc14610224575b600080fd5b3480156101c857600080fd5b506101e360048036038101906101de9190612e5a565b610694565b6040516101f09190612ea2565b60405180910390f35b34801561020557600080fd5b5061020e610776565b60405161021b9190612f56565b60405180910390f35b34801561023057600080fd5b5061024b60048036038101906102469190612fae565b610808565b604051610258919061301c565b60405180910390f35b34801561026d57600080fd5b5061028860048036038101906102839190613063565b61084e565b005b34801561029657600080fd5b5061029f610966565b6040516102ac919061322f565b60405180910390f35b3480156102c157600080fd5b506102dc60048036038101906102d79190613251565b610c0f565b005b3480156102ea57600080fd5b5061030560048036038101906103009190613063565b610c6f565b005b34801561031357600080fd5b5061032e600480360381019061032991906132a4565b610cd3565b60405161033b919061322f565b60405180910390f35b34801561035057600080fd5b5061036b600480360381019061036691906132e4565b610eaf565b005b34801561037957600080fd5b50610382610f9f565b60405161038f919061322f565b60405180910390f35b3480156103a457600080fd5b506103ad611185565b005b3480156103bb57600080fd5b506103d660048036038101906103d19190613251565b611197565b005b3480156103e457600080fd5b506103ff60048036038101906103fa9190612fae565b6111b7565b005b34801561040d57600080fd5b50610416611213565b6040516104239190612ea2565b60405180910390f35b34801561043857600080fd5b50610453600480360381019061044e9190612fae565b61122a565b604051610460919061301c565b60405180910390f35b34801561047557600080fd5b50610490600480360381019061048b91906132e4565b6112dc565b60405161049d9190613320565b60405180910390f35b3480156104b257600080fd5b506104bb611394565b005b3480156104c957600080fd5b506104d26113a8565b005b3480156104e057600080fd5b506104e96113ba565b6040516104f6919061301c565b60405180910390f35b34801561050b57600080fd5b506105146113e4565b6040516105219190612f56565b60405180910390f35b34801561053657600080fd5b50610551600480360381019061054c9190613367565b611476565b005b61056d600480360381019061056891906135c2565b61148c565b005b34801561057b57600080fd5b50610596600480360381019061059191906136bf565b611699565b005b3480156105a457600080fd5b506105bf60048036038101906105ba9190612fae565b6116fb565b6040516105cc9190612f56565b60405180910390f35b6105ef60048036038101906105ea9190613742565b61170d565b6040516105fc9190613320565b60405180910390f35b34801561061157600080fd5b5061062c6004803603810190610627919061378b565b6118e7565b6040516106399190612ea2565b60405180910390f35b34801561064e57600080fd5b50610669600480360381019061066491906132e4565b61197b565b005b34801561067757600080fd5b50610692600480360381019061068d9190613951565b6119ff565b005b60007f80ac58cd000000000000000000000000000000000000000000000000000000007bffffffffffffffffffffffffffffffffffffffffffffffffffffffff1916827bffffffffffffffffffffffffffffffffffffffffffffffffffffffff1916148061075f57507f5b5e139f000000000000000000000000000000000000000000000000000000007bffffffffffffffffffffffffffffffffffffffffffffffffffffffff1916827bffffffffffffffffffffffffffffffffffffffffffffffffffffffff1916145b8061076f575061076e82611aeb565b5b9050919050565b60606000805461078590613a0b565b80601f01602080910402602001604051908101604052809291908181526020018280546107b190613a0b565b80156107fe5780601f106107d3576101008083540402835291602001916107fe565b820191906000526020600020905b8154815290600101906020018083116107e157829003601f168201915b5050505050905090565b600061081382611b55565b6004600083815260200190815260200160002060009054906101000a900473ffffffffffffffffffffffffffffffffffffffff169050919050565b60006108598261122a565b90508073ffffffffffffffffffffffffffffffffffffffff168373ffffffffffffffffffffffffffffffffffffffff1614156108ca576040517f08c379a00000000000000000000000000000000000000000000000000000000081526004016108c190613aaf565b60405180910390fd5b8073ffffffffffffffffffffffffffffffffffffffff166108e9611ba0565b73ffffffffffffffffffffffffffffffffffffffff161480610918575061091781610912611ba0565b6118e7565b5b610957576040517f08c379a000000000000000000000000000000000000000000000000000000000815260040161094e90613b41565b60405180910390fd5b6109618383611ba8565b505050565b606060006109746008611c61565b905060008060005b838110156109ef573373ffffffffffffffffffffffffffffffffffffffff166109b06001836109ab9190613b90565b61122a565b73ffffffffffffffffffffffffffffffffffffffff1614156109dc576001836109d99190613b90565b92505b80806109e790613be6565b91505061097c565b5060008267ffffffffffffffff811115610a0c57610a0b6133ac565b5b604051908082528060200260200182016040528015610a4557816020015b610a32612cd4565b815260200190600190039081610a2a5790505b50905060005b84811015610c04573373ffffffffffffffffffffffffffffffffffffffff16610a7f600183610a7a9190613b90565b61122a565b73ffffffffffffffffffffffffffffffffffffffff161415610bf1576000600182610aaa9190613b90565b905060006009600083815260200190815260200160002090508060405180606001604052908160008201548152602001600182018054610ae990613a0b565b80601f0160208091040260200160405190810160405280929190818152602001828054610b1590613a0b565b8015610b625780601f10610b3757610100808354040283529160200191610b62565b820191906000526020600020905b815481529060010190602001808311610b4557829003601f168201915b505050505081526020016002820160009054906101000a900473ffffffffffffffffffffffffffffffffffffffff1673ffffffffffffffffffffffffffffffffffffffff1673ffffffffffffffffffffffffffffffffffffffff1681525050848681518110610bd457610bd3613c2f565b5b6020026020010181905250600185610bec9190613b90565b945050505b8080610bfc90613be6565b915050610a4b565b508094505050505090565b610c20610c1a611ba0565b82611c6f565b610c5f576040517f08c379a0000000000000000000000000000000000000000000000000000000008152600401610c5690613cd0565b60405180910390fd5b610c6a838383611d04565b505050565b610c7a338383611197565b816009600083815260200190815260200160002060020160006101000a81548173ffffffffffffffffffffffffffffffffffffffff021916908373ffffffffffffffffffffffffffffffffffffffff1602179055505050565b606060008383610ce39190613cf0565b90506000808267ffffffffffffffff811115610d0257610d016133ac565b5b604051908082528060200260200182016040528015610d3b57816020015b610d28612cd4565b815260200190600190039081610d205790505b50905060008690505b85811015610ea25760006009600083815260200190815260200160002090508060405180606001604052908160008201548152602001600182018054610d8990613a0b565b80601f0160208091040260200160405190810160405280929190818152602001828054610db590613a0b565b8015610e025780601f10610dd757610100808354040283529160200191610e02565b820191906000526020600020905b815481529060010190602001808311610de557829003601f168201915b505050505081526020016002820160009054906101000a900473ffffffffffffffffffffffffffffffffffffffff1673ffffffffffffffffffffffffffffffffffffffff1673ffffffffffffffffffffffffffffffffffffffff1681525050838581518110610e7457610e73613c2f565b5b6020026020010181905250600184610e8c9190613b90565b9350508080610e9a90613be6565b915050610d44565b5080935050505092915050565b610eb7611f6b565b600b60008273ffffffffffffffffffffffffffffffffffffffff1673ffffffffffffffffffffffffffffffffffffffff16815260200190815260200160002060009054906101000a900460ff1615610f44576040517f08c379a0000000000000000000000000000000000000000000000000000000008152600401610f3b90613d70565b60405180910390fd5b6001600b60008373ffffffffffffffffffffffffffffffffffffffff1673ffffffffffffffffffffffffffffffffffffffff16815260200190815260200160002060006101000a81548160ff02191690831515021790555050565b60606000610fad6008611c61565b90506000808267ffffffffffffffff811115610fcc57610fcb6133ac565b5b60405190808252806020026020018201604052801561100557816020015b610ff2612cd4565b815260200190600190039081610fea5790505b50905060005b8381101561117b5760006001826110229190613b90565b90506000600960008381526020019081526020016000209050806040518060600160405290816000820154815260200160018201805461106190613a0b565b80601f016020809104026020016040519081016040528092919081815260200182805461108d90613a0b565b80156110da5780601f106110af576101008083540402835291602001916110da565b820191906000526020600020905b8154815290600101906020018083116110bd57829003601f168201915b505050505081526020016002820160009054906101000a900473ffffffffffffffffffffffffffffffffffffffff1673ffffffffffffffffffffffffffffffffffffffff1673ffffffffffffffffffffffffffffffffffffffff168152505084868151811061114c5761114b613c2f565b5b60200260200101819052506001856111649190613b90565b94505050808061117390613be6565b91505061100b565b5080935050505090565b61118d611f6b565b611195611fe9565b565b6111b283838360405180602001604052806000815250611699565b505050565b6111c86111c2611ba0565b82611c6f565b611207576040517f08c379a00000000000000000000000000000000000000000000000000000000081526004016111fe90613cd0565b60405180910390fd5b6112108161204c565b50565b6000600760009054906101000a900460ff16905090565b6000806002600084815260200190815260200160002060009054906101000a900473ffffffffffffffffffffffffffffffffffffffff169050600073ffffffffffffffffffffffffffffffffffffffff168173ffffffffffffffffffffffffffffffffffffffff1614156112d3576040517f08c379a00000000000000000000000000000000000000000000000000000000081526004016112ca90613ddc565b60405180910390fd5b80915050919050565b60008073ffffffffffffffffffffffffffffffffffffffff168273ffffffffffffffffffffffffffffffffffffffff16141561134d576040517f08c379a000000000000000000000000000000000000000000000000000000000815260040161134490613e6e565b60405180910390fd5b600360008373ffffffffffffffffffffffffffffffffffffffff1673ffffffffffffffffffffffffffffffffffffffff168152602001908152602001600020549050919050565b61139c611f6b565b6113a66000612058565b565b6113b0611f6b565b6113b861211e565b565b6000600760019054906101000a900473ffffffffffffffffffffffffffffffffffffffff16905090565b6060600180546113f390613a0b565b80601f016020809104026020016040519081016040528092919081815260200182805461141f90613a0b565b801561146c5780601f106114415761010080835404028352916020019161146c565b820191906000526020600020905b81548152906001019060200180831161144f57829003601f168201915b5050505050905090565b611488611481611ba0565b8383612181565b5050565b60005b8281101561164057600b60003373ffffffffffffffffffffffffffffffffffffffff1673ffffffffffffffffffffffffffffffffffffffff16815260200190815260200160002060009054906101000a900460ff16611523576040517f08c379a000000000000000000000000000000000000000000000000000000000815260040161151a90613eda565b60405180910390fd5b61152d60086122ee565b60006115396008611c61565b90506115453382612304565b6115698184848151811061155c5761155b613c2f565b5b60200260200101516124de565b6000611574826116fb565b905060405180606001604052808381526020018281526020013373ffffffffffffffffffffffffffffffffffffffff16815250600960008481526020019081526020016000206000820151816000015560208201518160010190805190602001906115e0929190612d0b565b5060408201518160020160006101000a81548173ffffffffffffffffffffffffffffffffffffffff021916908373ffffffffffffffffffffffffffffffffffffffff1602179055509050505050808061163890613be6565b91505061148f565b50600061164b6113ba565b90508073ffffffffffffffffffffffffffffffffffffffff166108fc349081150290604051600060405180830381858888f19350505050158015611693573d6000803e3d6000fd5b50505050565b6116aa6116a4611ba0565b83611c6f565b6116e9576040517f08c379a00000000000000000000000000000000000000000000000000000000081526004016116e090613cd0565b60405180910390fd5b6116f584848484612552565b50505050565b6060611706826125ae565b9050919050565b6000600b60003373ffffffffffffffffffffffffffffffffffffffff1673ffffffffffffffffffffffffffffffffffffffff16815260200190815260200160002060009054906101000a900460ff1661179b576040517f08c379a000000000000000000000000000000000000000000000000000000000815260040161179290613eda565b60405180910390fd5b6117a560086122ee565b60006117b16008611c61565b90506117bd3382612304565b6117c781846124de565b60006117d2826116fb565b905060405180606001604052808381526020018281526020013373ffffffffffffffffffffffffffffffffffffffff168152506009600084815260200190815260200160002060008201518160000155602082015181600101908051906020019061183e929190612d0b565b5060408201518160020160006101000a81548173ffffffffffffffffffffffffffffffffffffffff021916908373ffffffffffffffffffffffffffffffffffffffff16021790555090505060006118936113ba565b90508073ffffffffffffffffffffffffffffffffffffffff166108fc349081150290604051600060405180830381858888f193505050501580156118db573d6000803e3d6000fd5b50829350505050919050565b6000600560008473ffffffffffffffffffffffffffffffffffffffff1673ffffffffffffffffffffffffffffffffffffffff16815260200190815260200160002060008373ffffffffffffffffffffffffffffffffffffffff1673ffffffffffffffffffffffffffffffffffffffff16815260200190815260200160002060009054906101000a900460ff16905092915050565b611983611f6b565b600073ffffffffffffffffffffffffffffffffffffffff168173ffffffffffffffffffffffffffffffffffffffff1614156119f3576040517f08c379a00000000000000000000000000000000000000000000000000000000081526004016119ea90613f6c565b60405180910390fd5b6119fc81612058565b50565b60005b83811015611ae557611a4933848381518110611a2157611a20613c2f565b5b6020026020010151848481518110611a3c57611a3b613c2f565b5b6020026020010151611197565b828181518110611a5c57611a5b613c2f565b5b602002602001015160096000848481518110611a7b57611a7a613c2f565b5b6020026020010151815260200190815260200160002060020160006101000a81548173ffffffffffffffffffffffffffffffffffffffff021916908373ffffffffffffffffffffffffffffffffffffffff1602179055508080611add90613be6565b915050611a02565b50505050565b60007f01ffc9a7000000000000000000000000000000000000000000000000000000007bffffffffffffffffffffffffffffffffffffffffffffffffffffffff1916827bffffffffffffffffffffffffffffffffffffffffffffffffffffffff1916149050919050565b611b5e816126c1565b611b9d576040517f08c379a0000000000000000000000000000000000000000000000000000000008152600401611b9490613ddc565b60405180910390fd5b50565b600033905090565b816004600083815260200190815260200160002060006101000a81548173ffffffffffffffffffffffffffffffffffffffff021916908373ffffffffffffffffffffffffffffffffffffffff160217905550808273ffffffffffffffffffffffffffffffffffffffff16611c1b8361122a565b73ffffffffffffffffffffffffffffffffffffffff167f8c5be1e5ebec7d5bd14f71427d1e84f3dd0314c0f7b2291e5b200ac8c7c3b92560405160405180910390a45050565b600081600001549050919050565b600080611c7b8361122a565b90508073ffffffffffffffffffffffffffffffffffffffff168473ffffffffffffffffffffffffffffffffffffffff161480611cbd5750611cbc81856118e7565b5b80611cfb57508373ffffffffffffffffffffffffffffffffffffffff16611ce384610808565b73ffffffffffffffffffffffffffffffffffffffff16145b91505092915050565b8273ffffffffffffffffffffffffffffffffffffffff16611d248261122a565b73ffffffffffffffffffffffffffffffffffffffff1614611d7a576040517f08c379a0000000000000000000000000000000000000000000000000000000008152600401611d7190613ffe565b60405180910390fd5b600073ffffffffffffffffffffffffffffffffffffffff168273ffffffffffffffffffffffffffffffffffffffff161415611dea576040517f08c379a0000000000000000000000000000000000000000000000000000000008152600401611de190614090565b60405180910390fd5b611df583838361272d565b611e00600082611ba8565b6001600360008573ffffffffffffffffffffffffffffffffffffffff1673ffffffffffffffffffffffffffffffffffffffff1681526020019081526020016000206000828254611e509190613cf0565b925050819055506001600360008473ffffffffffffffffffffffffffffffffffffffff1673ffffffffffffffffffffffffffffffffffffffff1681526020019081526020016000206000828254611ea79190613b90565b92505081905550816002600083815260200190815260200160002060006101000a81548173ffffffffffffffffffffffffffffffffffffffff021916908373ffffffffffffffffffffffffffffffffffffffff160217905550808273ffffffffffffffffffffffffffffffffffffffff168473ffffffffffffffffffffffffffffffffffffffff167fddf252ad1be2c89b69c2b068fc378daa952ba7f163c4a11628f55a4df523b3ef60405160405180910390a4611f66838383612732565b505050565b611f73611ba0565b73ffffffffffffffffffffffffffffffffffffffff16611f916113ba565b73ffffffffffffffffffffffffffffffffffffffff1614611fe7576040517f08c379a0000000000000000000000000000000000000000000000000000000008152600401611fde906140fc565b60405180910390fd5b565b611ff1612737565b6000600760006101000a81548160ff0219169083151502179055507f5db9ee0a495bf2e6ff9c91a7834c1ba4fdd244a5e8aa4e537bd38aeae4b073aa612035611ba0565b604051612042919061301c565b60405180910390a1565b61205581612780565b50565b6000600760019054906101000a900473ffffffffffffffffffffffffffffffffffffffff16905081600760016101000a81548173ffffffffffffffffffffffffffffffffffffffff021916908373ffffffffffffffffffffffffffffffffffffffff1602179055508173ffffffffffffffffffffffffffffffffffffffff168173ffffffffffffffffffffffffffffffffffffffff167f8be0079c531659141344cd1fd0a4f28419497f9722a3daafe3b4186f6b6457e060405160405180910390a35050565b6121266127d3565b6001600760006101000a81548160ff0219169083151502179055507f62e78cea01bee320cd4e420270b5ea74000d11b0c9f74754ebdbfc544b05a25861216a611ba0565b604051612177919061301c565b60405180910390a1565b8173ffffffffffffffffffffffffffffffffffffffff168373ffffffffffffffffffffffffffffffffffffffff1614156121f0576040517f08c379a00000000000000000000000000000000000000000000000000000000081526004016121e790614168565b60405180910390fd5b80600560008573ffffffffffffffffffffffffffffffffffffffff1673ffffffffffffffffffffffffffffffffffffffff16815260200190815260200160002060008473ffffffffffffffffffffffffffffffffffffffff1673ffffffffffffffffffffffffffffffffffffffff16815260200190815260200160002060006101000a81548160ff0219169083151502179055508173ffffffffffffffffffffffffffffffffffffffff168373ffffffffffffffffffffffffffffffffffffffff167f17307eab39ab6107e8899845ad3d59bd9653f200f220920489ca2b5937696c31836040516122e19190612ea2565b60405180910390a3505050565b6001816000016000828254019250508190555050565b600073ffffffffffffffffffffffffffffffffffffffff168273ffffffffffffffffffffffffffffffffffffffff161415612374576040517f08c379a000000000000000000000000000000000000000000000000000000000815260040161236b906141d4565b60405180910390fd5b61237d816126c1565b156123bd576040517f08c379a00000000000000000000000000000000000000000000000000000000081526004016123b490614240565b60405180910390fd5b6123c96000838361272d565b6001600360008473ffffffffffffffffffffffffffffffffffffffff1673ffffffffffffffffffffffffffffffffffffffff16815260200190815260200160002060008282546124199190613b90565b92505081905550816002600083815260200190815260200160002060006101000a81548173ffffffffffffffffffffffffffffffffffffffff021916908373ffffffffffffffffffffffffffffffffffffffff160217905550808273ffffffffffffffffffffffffffffffffffffffff16600073ffffffffffffffffffffffffffffffffffffffff167fddf252ad1be2c89b69c2b068fc378daa952ba7f163c4a11628f55a4df523b3ef60405160405180910390a46124da60008383612732565b5050565b6124e7826126c1565b612526576040517f08c379a000000000000000000000000000000000000000000000000000000000815260040161251d906142d2565b60405180910390fd5b8060066000848152602001908152602001600020908051906020019061254d929190612d0b565b505050565b61255d848484611d04565b6125698484848461281d565b6125a8576040517f08c379a000000000000000000000000000000000000000000000000000000000815260040161259f90614364565b60405180910390fd5b50505050565b60606125b982611b55565b60006006600084815260200190815260200160002080546125d990613a0b565b80601f016020809104026020016040519081016040528092919081815260200182805461260590613a0b565b80156126525780601f1061262757610100808354040283529160200191612652565b820191906000526020600020905b81548152906001019060200180831161263557829003601f168201915b5050505050905060006126636129b4565b90506000815114156126795781925050506126bc565b6000825111156126ae5780826040516020016126969291906143c0565b604051602081830303815290604052925050506126bc565b6126b7846129cb565b925050505b919050565b60008073ffffffffffffffffffffffffffffffffffffffff166002600084815260200190815260200160002060009054906101000a900473ffffffffffffffffffffffffffffffffffffffff1673ffffffffffffffffffffffffffffffffffffffff1614159050919050565b505050565b505050565b61273f611213565b61277e576040517f08c379a000000000000000000000000000000000000000000000000000000000815260040161277590614430565b60405180910390fd5b565b61278981612a33565b60006006600083815260200190815260200160002080546127a990613a0b565b9050146127d0576006600082815260200190815260200160002060006127cf9190612d91565b5b50565b6127db611213565b1561281b576040517f08c379a00000000000000000000000000000000000000000000000000000000081526004016128129061449c565b60405180910390fd5b565b600061283e8473ffffffffffffffffffffffffffffffffffffffff16612b50565b156129a7578373ffffffffffffffffffffffffffffffffffffffff1663150b7a02612867611ba0565b8786866040518563ffffffff1660e01b81526004016128899493929190614511565b602060405180830381600087803b1580156128a357600080fd5b505af19250505080156128d457506040513d601f19601f820116820180604052508101906128d19190614572565b60015b612957573d8060008114612904576040519150601f19603f3d011682016040523d82523d6000602084013e612909565b606091505b5060008151141561294f576040517f08c379a000000000000000000000000000000000000000000000000000000000815260040161294690614364565b60405180910390fd5b805181602001fd5b63150b7a0260e01b7bffffffffffffffffffffffffffffffffffffffffffffffffffffffff1916817bffffffffffffffffffffffffffffffffffffffffffffffffffffffff1916149150506129ac565b600190505b949350505050565b606060405180602001604052806000815250905090565b60606129d682611b55565b60006129e06129b4565b90506000815111612a005760405180602001604052806000815250612a2b565b80612a0a84612b73565b604051602001612a1b9291906143c0565b6040516020818303038152906040525b915050919050565b6000612a3e8261122a565b9050612a4c8160008461272d565b612a57600083611ba8565b6001600360008373ffffffffffffffffffffffffffffffffffffffff1673ffffffffffffffffffffffffffffffffffffffff1681526020019081526020016000206000828254612aa79190613cf0565b925050819055506002600083815260200190815260200160002060006101000a81549073ffffffffffffffffffffffffffffffffffffffff021916905581600073ffffffffffffffffffffffffffffffffffffffff168273ffffffffffffffffffffffffffffffffffffffff167fddf252ad1be2c89b69c2b068fc378daa952ba7f163c4a11628f55a4df523b3ef60405160405180910390a4612b4c81600084612732565b5050565b6000808273ffffffffffffffffffffffffffffffffffffffff163b119050919050565b60606000821415612bbb576040518060400160405280600181526020017f30000000000000000000000000000000000000000000000000000000000000008152509050612ccf565b600082905060005b60008214612bed578080612bd690613be6565b915050600a82612be691906145ce565b9150612bc3565b60008167ffffffffffffffff811115612c0957612c086133ac565b5b6040519080825280601f01601f191660200182016040528015612c3b5781602001600182028036833780820191505090505b5090505b60008514612cc857600182612c549190613cf0565b9150600a85612c6391906145ff565b6030612c6f9190613b90565b60f81b818381518110612c8557612c84613c2f565b5b60200101907effffffffffffffffffffffffffffffffffffffffffffffffffffffffffffff1916908160001a905350600a85612cc191906145ce565b9450612c3f565b8093505050505b919050565b60405180606001604052806000815260200160608152602001600073ffffffffffffffffffffffffffffffffffffffff1681525090565b828054612d1790613a0b565b90600052602060002090601f016020900481019282612d395760008555612d80565b82601f10612d5257805160ff1916838001178555612d80565b82800160010185558215612d80579182015b82811115612d7f578251825591602001919060010190612d64565b5b509050612d8d9190612dd1565b5090565b508054612d9d90613a0b565b6000825580601f10612daf5750612dce565b601f016020900490600052602060002090810190612dcd9190612dd1565b5b50565b5b80821115612dea576000816000905550600101612dd2565b5090565b6000604051905090565b600080fd5b600080fd5b60007fffffffff0000000000000000000000000000000000000000000000000000000082169050919050565b612e3781612e02565b8114612e4257600080fd5b50565b600081359050612e5481612e2e565b92915050565b600060208284031215612e7057612e6f612df8565b5b6000612e7e84828501612e45565b91505092915050565b60008115159050919050565b612e9c81612e87565b82525050565b6000602082019050612eb76000830184612e93565b92915050565b600081519050919050565b600082825260208201905092915050565b60005b83811015612ef7578082015181840152602081019050612edc565b83811115612f06576000848401525b50505050565b6000601f19601f8301169050919050565b6000612f2882612ebd565b612f328185612ec8565b9350612f42818560208601612ed9565b612f4b81612f0c565b840191505092915050565b60006020820190508181036000830152612f708184612f1d565b905092915050565b6000819050919050565b612f8b81612f78565b8114612f9657600080fd5b50565b600081359050612fa881612f82565b92915050565b600060208284031215612fc457612fc3612df8565b5b6000612fd284828501612f99565b91505092915050565b600073ffffffffffffffffffffffffffffffffffffffff82169050919050565b600061300682612fdb565b9050919050565b61301681612ffb565b82525050565b6000602082019050613031600083018461300d565b92915050565b61304081612ffb565b811461304b57600080fd5b50565b60008135905061305d81613037565b92915050565b6000806040838503121561307a57613079612df8565b5b60006130888582860161304e565b925050602061309985828601612f99565b9150509250929050565b600081519050919050565b600082825260208201905092915050565b6000819050602082019050919050565b6130d881612f78565b82525050565b600082825260208201905092915050565b60006130fa82612ebd565b61310481856130de565b9350613114818560208601612ed9565b61311d81612f0c565b840191505092915050565b600061313382612fdb565b9050919050565b61314381613128565b82525050565b600060608301600083015161316160008601826130cf565b506020830151848203602086015261317982826130ef565b915050604083015161318e604086018261313a565b508091505092915050565b60006131a58383613149565b905092915050565b6000602082019050919050565b60006131c5826130a3565b6131cf81856130ae565b9350836020820285016131e1856130bf565b8060005b8581101561321d57848403895281516131fe8582613199565b9450613209836131ad565b925060208a019950506001810190506131e5565b50829750879550505050505092915050565b6000602082019050818103600083015261324981846131ba565b905092915050565b60008060006060848603121561326a57613269612df8565b5b60006132788682870161304e565b93505060206132898682870161304e565b925050604061329a86828701612f99565b9150509250925092565b600080604083850312156132bb576132ba612df8565b5b60006132c985828601612f99565b92505060206132da85828601612f99565b9150509250929050565b6000602082840312156132fa576132f9612df8565b5b60006133088482850161304e565b91505092915050565b61331a81612f78565b82525050565b60006020820190506133356000830184613311565b92915050565b61334481612e87565b811461334f57600080fd5b50565b6000813590506133618161333b565b92915050565b6000806040838503121561337e5761337d612df8565b5b600061338c8582860161304e565b925050602061339d85828601613352565b9150509250929050565b600080fd5b7f4e487b7100000000000000000000000000000000000000000000000000000000600052604160045260246000fd5b6133e482612f0c565b810181811067ffffffffffffffff82111715613403576134026133ac565b5b80604052505050565b6000613416612dee565b905061342282826133db565b919050565b600067ffffffffffffffff821115613442576134416133ac565b5b602082029050602081019050919050565b600080fd5b600080fd5b600067ffffffffffffffff821115613478576134776133ac565b5b61348182612f0c565b9050602081019050919050565b82818337600083830152505050565b60006134b06134ab8461345d565b61340c565b9050828152602081018484840111156134cc576134cb613458565b5b6134d784828561348e565b509392505050565b600082601f8301126134f4576134f36133a7565b5b813561350484826020860161349d565b91505092915050565b600061352061351b84613427565b61340c565b9050808382526020820190506020840283018581111561354357613542613453565b5b835b8181101561358a57803567ffffffffffffffff811115613568576135676133a7565b5b80860161357589826134df565b85526020850194505050602081019050613545565b5050509392505050565b600082601f8301126135a9576135a86133a7565b5b81356135b984826020860161350d565b91505092915050565b600080604083850312156135d9576135d8612df8565b5b60006135e785828601612f99565b925050602083013567ffffffffffffffff81111561360857613607612dfd565b5b61361485828601613594565b9150509250929050565b600067ffffffffffffffff821115613639576136386133ac565b5b61364282612f0c565b9050602081019050919050565b600061366261365d8461361e565b61340c565b90508281526020810184848401111561367e5761367d613458565b5b61368984828561348e565b509392505050565b600082601f8301126136a6576136a56133a7565b5b81356136b684826020860161364f565b91505092915050565b600080600080608085870312156136d9576136d8612df8565b5b60006136e78782880161304e565b94505060206136f88782880161304e565b935050604061370987828801612f99565b925050606085013567ffffffffffffffff81111561372a57613729612dfd565b5b61373687828801613691565b91505092959194509250565b60006020828403121561375857613757612df8565b5b600082013567ffffffffffffffff81111561377657613775612dfd565b5b613782848285016134df565b91505092915050565b600080604083850312156137a2576137a1612df8565b5b60006137b08582860161304e565b92505060206137c18582860161304e565b9150509250929050565b600067ffffffffffffffff8211156137e6576137e56133ac565b5b602082029050602081019050919050565b600061380a613805846137cb565b61340c565b9050808382526020820190506020840283018581111561382d5761382c613453565b5b835b818110156138565780613842888261304e565b84526020840193505060208101905061382f565b5050509392505050565b600082601f830112613875576138746133a7565b5b81356138858482602086016137f7565b91505092915050565b600067ffffffffffffffff8211156138a9576138a86133ac565b5b602082029050602081019050919050565b60006138cd6138c88461388e565b61340c565b905080838252602082019050602084028301858111156138f0576138ef613453565b5b835b8181101561391957806139058882612f99565b8452602084019350506020810190506138f2565b5050509392505050565b600082601f830112613938576139376133a7565b5b81356139488482602086016138ba565b91505092915050565b60008060006060848603121561396a57613969612df8565b5b600061397886828701612f99565b935050602084013567ffffffffffffffff81111561399957613998612dfd565b5b6139a586828701613860565b925050604084013567ffffffffffffffff8111156139c6576139c5612dfd565b5b6139d286828701613923565b9150509250925092565b7f4e487b7100000000000000000000000000000000000000000000000000000000600052602260045260246000fd5b60006002820490506001821680613a2357607f821691505b60208210811415613a3757613a366139dc565b5b50919050565b7f4552433732313a20617070726f76616c20746f2063757272656e74206f776e6560008201527f7200000000000000000000000000000000000000000000000000000000000000602082015250565b6000613a99602183612ec8565b9150613aa482613a3d565b604082019050919050565b60006020820190508181036000830152613ac881613a8c565b9050919050565b7f4552433732313a20617070726f76652063616c6c6572206973206e6f7420746f60008201527f6b656e206f776e6572206e6f7220617070726f76656420666f7220616c6c0000602082015250565b6000613b2b603e83612ec8565b9150613b3682613acf565b604082019050919050565b60006020820190508181036000830152613b5a81613b1e565b9050919050565b7f4e487b7100000000000000000000000000000000000000000000000000000000600052601160045260246000fd5b6000613b9b82612f78565b9150613ba683612f78565b9250827fffffffffffffffffffffffffffffffffffffffffffffffffffffffffffffffff03821115613bdb57613bda613b61565b5b828201905092915050565b6000613bf182612f78565b91507fffffffffffffffffffffffffffffffffffffffffffffffffffffffffffffffff821415613c2457613c23613b61565b5b600182019050919050565b7f4e487b7100000000000000000000000000000000000000000000000000000000600052603260045260246000fd5b7f4552433732313a2063616c6c6572206973206e6f7420746f6b656e206f776e6560008201527f72206e6f7220617070726f766564000000000000000000000000000000000000602082015250565b6000613cba602e83612ec8565b9150613cc582613c5e565b604082019050919050565b60006020820190508181036000830152613ce981613cad565b9050919050565b6000613cfb82612f78565b9150613d0683612f78565b925082821015613d1957613d18613b61565b5b828203905092915050565b7f4164647265737320616c72656164792061646465640000000000000000000000600082015250565b6000613d5a601583612ec8565b9150613d6582613d24565b602082019050919050565b60006020820190508181036000830152613d8981613d4d565b9050919050565b7f4552433732313a20696e76616c696420746f6b656e2049440000000000000000600082015250565b6000613dc6601883612ec8565b9150613dd182613d90565b602082019050919050565b60006020820190508181036000830152613df581613db9565b9050919050565b7f4552433732313a2061646472657373207a65726f206973206e6f74206120766160008201527f6c6964206f776e65720000000000000000000000000000000000000000000000602082015250565b6000613e58602983612ec8565b9150613e6382613dfc565b604082019050919050565b60006020820190508181036000830152613e8781613e4b565b9050919050565b7f596f7520617265206e6f7420612076616c6964206d696e746572000000000000600082015250565b6000613ec4601a83612ec8565b9150613ecf82613e8e565b602082019050919050565b60006020820190508181036000830152613ef381613eb7565b9050919050565b7f4f776e61626c653a206e6577206f776e657220697320746865207a65726f206160008201527f6464726573730000000000000000000000000000000000000000000000000000602082015250565b6000613f56602683612ec8565b9150613f6182613efa565b604082019050919050565b60006020820190508181036000830152613f8581613f49565b9050919050565b7f4552433732313a207472616e736665722066726f6d20696e636f72726563742060008201527f6f776e6572000000000000000000000000000000000000000000000000000000602082015250565b6000613fe8602583612ec8565b9150613ff382613f8c565b604082019050919050565b6000602082019050818103600083015261401781613fdb565b9050919050565b7f4552433732313a207472616e7366657220746f20746865207a65726f2061646460008201527f7265737300000000000000000000000000000000000000000000000000000000602082015250565b600061407a602483612ec8565b91506140858261401e565b604082019050919050565b600060208201905081810360008301526140a98161406d565b9050919050565b7f4f776e61626c653a2063616c6c6572206973206e6f7420746865206f776e6572600082015250565b60006140e6602083612ec8565b91506140f1826140b0565b602082019050919050565b60006020820190508181036000830152614115816140d9565b9050919050565b7f4552433732313a20617070726f766520746f2063616c6c657200000000000000600082015250565b6000614152601983612ec8565b915061415d8261411c565b602082019050919050565b6000602082019050818103600083015261418181614145565b9050919050565b7f4552433732313a206d696e7420746f20746865207a65726f2061646472657373600082015250565b60006141be602083612ec8565b91506141c982614188565b602082019050919050565b600060208201905081810360008301526141ed816141b1565b9050919050565b7f4552433732313a20746f6b656e20616c7265616479206d696e74656400000000600082015250565b600061422a601c83612ec8565b9150614235826141f4565b602082019050919050565b600060208201905081810360008301526142598161421d565b9050919050565b7f45524337323155524953746f726167653a2055524920736574206f66206e6f6e60008201527f6578697374656e7420746f6b656e000000000000000000000000000000000000602082015250565b60006142bc602e83612ec8565b91506142c782614260565b604082019050919050565b600060208201905081810360008301526142eb816142af565b9050919050565b7f4552433732313a207472616e7366657220746f206e6f6e20455243373231526560008201527f63656976657220696d706c656d656e7465720000000000000000000000000000602082015250565b600061434e603283612ec8565b9150614359826142f2565b604082019050919050565b6000602082019050818103600083015261437d81614341565b9050919050565b600081905092915050565b600061439a82612ebd565b6143a48185614384565b93506143b4818560208601612ed9565b80840191505092915050565b60006143cc828561438f565b91506143d8828461438f565b91508190509392505050565b7f5061757361626c653a206e6f7420706175736564000000000000000000000000600082015250565b600061441a601483612ec8565b9150614425826143e4565b602082019050919050565b600060208201905081810360008301526144498161440d565b9050919050565b7f5061757361626c653a2070617573656400000000000000000000000000000000600082015250565b6000614486601083612ec8565b915061449182614450565b602082019050919050565b600060208201905081810360008301526144b581614479565b9050919050565b600081519050919050565b600082825260208201905092915050565b60006144e3826144bc565b6144ed81856144c7565b93506144fd818560208601612ed9565b61450681612f0c565b840191505092915050565b6000608082019050614526600083018761300d565b614533602083018661300d565b6145406040830185613311565b818103606083015261455281846144d8565b905095945050505050565b60008151905061456c81612e2e565b92915050565b60006020828403121561458857614587612df8565b5b60006145968482850161455d565b91505092915050565b7f4e487b7100000000000000000000000000000000000000000000000000000000600052601260045260246000fd5b60006145d982612f78565b91506145e483612f78565b9250826145f4576145f361459f565b5b828204905092915050565b600061460a82612f78565b915061461583612f78565b9250826146255761462461459f565b5b82820690509291505056fea2646970667358221220147a67c2474db450a3593645cf459a1c688c10446d8e809befaaaade748f879e64736f6c63430008090033",
  "linkReferences": {},
  "deployedLinkReferences": {}
}